{
  "_format": "hh-sol-artifact-1",
  "contractName": "SmartFidget",
  "sourceName": "contracts/SmartFidget.sol",
  "abi": [
    {
      "inputs": [],
      "stateMutability": "nonpayable",
      "type": "constructor"
    },
    {
      "anonymous": false,
      "inputs": [
        {
          "indexed": false,
          "internalType": "uint256",
          "name": "recordId",
          "type": "uint256"
        }
      ],
      "name": "RecordAdded",
      "type": "event"
    },
    {
      "anonymous": false,
      "inputs": [
        {
          "indexed": false,
          "internalType": "string",
          "name": "date",
          "type": "string"
        },
        {
          "indexed": false,
          "internalType": "uint256",
          "name": "sessionId",
          "type": "uint256"
        }
      ],
      "name": "SessionAdded",
      "type": "event"
    },
    {
      "inputs": [
        {
          "internalType": "uint16",
          "name": "_avg",
          "type": "uint16"
        },
        {
          "internalType": "uint16",
          "name": "_min",
          "type": "uint16"
        },
        {
          "internalType": "uint16",
          "name": "_max",
          "type": "uint16"
        },
        {
          "internalType": "uint16",
          "name": "_main",
          "type": "uint16"
        },
        {
          "internalType": "uint16",
          "name": "_sessionCount",
          "type": "uint16"
        },
        {
          "internalType": "uint256",
          "name": "_totDuration",
          "type": "uint256"
        },
        {
          "internalType": "string",
          "name": "_date",
          "type": "string"
        }
      ],
      "name": "addRecord",
      "outputs": [],
      "stateMutability": "nonpayable",
      "type": "function"
    },
    {
      "inputs": [
        {
          "internalType": "uint16",
          "name": "_main",
          "type": "uint16"
        },
        {
          "internalType": "uint16",
          "name": "_avg",
          "type": "uint16"
        },
        {
          "internalType": "uint16",
          "name": "_min",
          "type": "uint16"
        },
        {
          "internalType": "uint16",
          "name": "_max",
          "type": "uint16"
        },
        {
          "internalType": "uint16",
          "name": "_id",
          "type": "uint16"
        },
        {
          "internalType": "string",
          "name": "_duration",
          "type": "string"
        },
        {
          "internalType": "string",
          "name": "_date",
          "type": "string"
        },
        {
          "internalType": "string",
          "name": "_startTime",
          "type": "string"
        },
        {
          "internalType": "string",
          "name": "_endTime",
          "type": "string"
        },
        {
          "internalType": "string[]",
          "name": "_tags",
          "type": "string[]"
        },
        {
          "internalType": "string",
          "name": "_comment",
          "type": "string"
        }
      ],
      "name": "addSession",
      "outputs": [],
      "stateMutability": "nonpayable",
      "type": "function"
    },
    {
      "inputs": [
        {
          "internalType": "uint256",
          "name": "recordId",
          "type": "uint256"
        }
      ],
      "name": "getRecord",
      "outputs": [
        {
          "internalType": "address",
          "name": "writer",
          "type": "address"
        },
        {
          "internalType": "uint16",
          "name": "avg",
          "type": "uint16"
        },
        {
          "internalType": "uint16",
          "name": "min",
          "type": "uint16"
        },
        {
          "internalType": "uint16",
          "name": "max",
          "type": "uint16"
        },
        {
          "internalType": "uint16",
          "name": "main",
          "type": "uint16"
        },
        {
          "internalType": "uint16",
          "name": "sessionCount",
          "type": "uint16"
        },
        {
          "internalType": "uint256",
          "name": "totDuration",
          "type": "uint256"
        },
        {
          "internalType": "string",
          "name": "date",
          "type": "string"
        }
      ],
      "stateMutability": "view",
      "type": "function"
    },
    {
      "inputs": [],
      "name": "getRecordsCount",
      "outputs": [
        {
          "internalType": "uint256",
          "name": "",
          "type": "uint256"
        }
      ],
      "stateMutability": "view",
      "type": "function"
    },
    {
      "inputs": [
        {
          "internalType": "uint16",
          "name": "_id",
          "type": "uint16"
        },
        {
          "internalType": "string",
          "name": "_date",
          "type": "string"
        }
      ],
      "name": "getSession",
      "outputs": [
        {
          "internalType": "uint16",
          "name": "main",
          "type": "uint16"
        },
        {
          "internalType": "uint16",
          "name": "avg",
          "type": "uint16"
        },
        {
          "internalType": "uint16",
          "name": "min",
          "type": "uint16"
        },
        {
          "internalType": "uint16",
          "name": "max",
          "type": "uint16"
        },
        {
          "internalType": "uint16",
          "name": "id",
          "type": "uint16"
        },
        {
          "internalType": "string",
          "name": "duration",
          "type": "string"
        },
        {
          "internalType": "string",
          "name": "startTime",
          "type": "string"
        },
        {
          "internalType": "string",
          "name": "endTime",
          "type": "string"
        },
        {
          "internalType": "string[]",
          "name": "tags",
          "type": "string[]"
        },
        {
          "internalType": "string",
          "name": "comment",
          "type": "string"
        }
      ],
      "stateMutability": "view",
      "type": "function"
    },
    {
      "inputs": [],
      "name": "owner",
      "outputs": [
        {
          "internalType": "address",
          "name": "",
          "type": "address"
        }
      ],
      "stateMutability": "view",
      "type": "function"
    },
    {
      "inputs": [
        {
          "internalType": "uint256",
          "name": "",
          "type": "uint256"
        }
      ],
      "name": "records",
      "outputs": [
        {
          "internalType": "address",
          "name": "writer",
          "type": "address"
        },
        {
          "internalType": "uint16",
          "name": "avg",
          "type": "uint16"
        },
        {
          "internalType": "uint16",
          "name": "min",
          "type": "uint16"
        },
        {
          "internalType": "uint16",
          "name": "max",
          "type": "uint16"
        },
        {
          "internalType": "uint16",
          "name": "main",
          "type": "uint16"
        },
        {
          "internalType": "uint16",
          "name": "sessionCount",
          "type": "uint16"
        },
        {
          "internalType": "uint256",
          "name": "totDuration",
          "type": "uint256"
        },
        {
          "internalType": "string",
          "name": "date",
          "type": "string"
        }
      ],
      "stateMutability": "view",
      "type": "function"
    },
    {
      "inputs": [],
      "name": "recordsCount",
      "outputs": [
        {
          "internalType": "uint256",
          "name": "",
          "type": "uint256"
        }
      ],
      "stateMutability": "view",
      "type": "function"
    }
  ],
  "bytecode": "0x60a080604052346100455733608052611480908161004b823960805181818160ad0152818161023a01528181610ad201528181610d0b01528181610e0201526110630152f35b600080fdfe6080604052600436101561001257600080fd5b60003560e01c806303e9e6091461104157806332143d8a14610dc45780633446106714610d46578063505158bb14610cf45780635e57270b14610a6e5780637ba4f2fa146100dc5780638da5cb5b146100975763eb3dbf831461007457600080fd5b34610092576000366003190112610092576020600054604051908152f35b600080fd5b34610092576000366003190112610092576040517f00000000000000000000000000000000000000000000000000000000000000006001600160a01b03168152602090f35b3461009257610160366003190112610092576100f66111c9565b6100fe6111da565b906101076111eb565b916101106111fc565b9061011961120d565b9160a4356001600160401b0381116100925761013990369060040161123f565b9360c4356001600160401b0381116100925761015990369060040161123f565b9460e4356001600160401b0381116100925761017990369060040161123f565b90610104356001600160401b0381116100925761019a90369060040161123f565b926001600160401b0361012435116100925736602361012435011215610092576101243560040135946101cc866113c5565b956101da604051978861121e565b80875260208701903660248260051b610124350101116100925760246101243501915b60248260051b6101243501018310610a3a575050506001600160401b03610144351161009257610233366101443560040161123f565b96610268337f00000000000000000000000000000000000000000000000000000000000000006001600160a01b0316146113dc565b6040519a8b6001600160401b0361014082818101109201111761067b5761ffff8094928d82809561014083016040521690521660208d01521660408b015216606089015261ffff8616608089015260a088015260c087015260e086015261010085015261012084015260405160208184516102e68183858901611128565b810160028152030190208054600160401b81101561067b5761030d91600182018155611417565b610a24578351815460208087015160408089015160608a015160808b015169ffffffffffffffffffff1990961661ffff979097169690961760109390931b63ffff000016929092179190921b65ffff00000000161760309390931b67ffff0000000000001692909217911b69ffff00000000000000001617815560a08401518051906001600160401b03821161067b576103aa60018401546112e6565b601f81116109ef575b50602090601f831160011461097d576103e5929160009183610824575b50508160011b916000199060031b1c19161790565b60018201555b60c08401518051906001600160401b03821161067b5761040e60028401546112e6565b601f8111610948575b50602090601f83116001146108d6576104489291600091836108245750508160011b916000199060031b1c19161790565b60028201555b60e08401518051906001600160401b03821161067b5761047160038401546112e6565b601f81116108a1575b50602090601f831160011461082f576104ab9291600091836108245750508160011b916000199060031b1c19161790565b60038201555b610100840151805190600160401b821161067b5760048301548260048501558083106107ac575b5060200190600483016000526020600020916000905b8282106106915750505050600561012091019301519283516001600160401b03811161067b5761051e82546112e6565b601f811161063e575b506020601f82116001146105b057816105999594939261057f927f83c340f8b0e7179e29631d50bd796527c5b1084dce9f1a6b9dc4cabae635dd29986000926105a55750508160011b916000199060031b1c19161790565b90555b61ffff60405193849360408552604085019061114b565b911660208301520390a1005b0151905088806103d0565b601f198216958360005260206000209660005b8181106106265750966001928492610599989796957f83c340f8b0e7179e29631d50bd796527c5b1084dce9f1a6b9dc4cabae635dd299a1061060d575b505050811b019055610582565b015160001960f88460031b161c19169055878080610600565b838301518955600190980197602093840193016105c3565b61066b90836000526020600020601f840160051c81019160208510610671575b601f0160051c0190611433565b85610527565b909150819061065e565b634e487b7160e01b600052604160045260246000fd5b80518051906001600160401b03821161067b576106ae86546112e6565b601f811161077a575b50602090601f831160011461070a57926106f0836001959460209487966000926106ff5750508160011b916000199060031b1c19161790565b87555b019401910190926104ee565b015190508e806103d0565b908660005260206000209160005b601f1985168110610762575083602093600196938796938794601f19811610610749575b505050811b0187556106f3565b015160001960f88460031b161c191690558d808061073c565b91926020600181928685015181550194019201610718565b6107a690876000526020600020601f850160051c8101916020861061067157601f0160051c0190611433565b8a6106b7565b600484016000526020600020908382015b81830181106107cd5750506104d8565b806107da600192546112e6565b806107e7575b50016107bd565b601f811183146107fd5750600081555b8a6107e0565b60009082825261081b601f60208420920160051c8201858301611433565b818355556107f7565b0151905087806103d0565b9190600384016000526020600020906000935b601f1984168510610886576001945083601f1981161061086d575b505050811b0160038201556104b1565b015160001960f88460031b161c1916905586808061085d565b81810151835560209485019460019093019290910190610842565b6108d090600385016000526020600020601f850160051c8101916020861061067157601f0160051c0190611433565b8661047a565b9190600284016000526020600020906000935b601f198416851061092d576001945083601f19811610610914575b505050811b01600282015561044e565b015160001960f88460031b161c19169055868080610904565b818101518355602094850194600190930192909101906108e9565b61097790600285016000526020600020601f850160051c8101916020861061067157601f0160051c0190611433565b86610417565b9190600184016000526020600020906000935b601f19841685106109d4576001945083601f198116106109bb575b505050811b0160018201556103eb565b015160001960f88460031b161c191690558680806109ab565b81810151835560209485019460019093019290910190610990565b610a1e90600185016000526020600020601f850160051c8101916020861061067157601f0160051c0190611433565b866103b3565b634e487b7160e01b600052600060045260246000fd5b6001600160401b0383351161009257602080602492610a613685883561012435010161123f565b81520193019290506101fd565b346100925760e036600319011261009257610a876111c9565b610a8f6111da565b610a976111eb565b91610aa06111fc565b92610aa961120d565b926001600160401b039260c43584811161009257610acb90369060040161123f565b94610b00337f00000000000000000000000000000000000000000000000000000000000000006001600160a01b0316146113dc565b600196875494600160401b86101561067b57610b22868a600298018b55611295565b5080546001600160f01b03191669ffffffffffffffffffff60a01b1933161760a09590951b61ffff60a01b169490941760b09590951b61ffff60b01b169490941760c09490941b61ffff60c01b169390931760d09390931b61ffff60d01b169290921760e09290921b61ffff60e01b1691909117815560a4358582015583519101929091821161067b57610bb683546112e6565b601f8111610cc2575b50602090601f8311600114610c6057610bf0929160009183610c555750508160011b916000199060031b1c19161790565b90555b6000546000199190828114610c3f57810160005554908101908111610c3f5760207fd1959b6f21a13d63764a45c846f4a58f7e55291fb17591ff1d1b3fd4c2953e4591604051908152a1005b634e487b7160e01b600052601160045260246000fd5b0151905085806103d0565b849291601f1983169185600052816000209260005b818110610caa57508411610c91575b505050811b019055610bf3565b015160001960f88460031b161c19169055848080610c84565b82840151855588969094019360209384019301610c75565b610cee90846000526020600020601f850160051c8101916020861061067157601f0160051c0190611433565b84610bbf565b3461009257600036600319011261009257610d39337f00000000000000000000000000000000000000000000000000000000000000006001600160a01b0316146113dc565b6020600154604051908152f35b346100925760203660031901126100925760043560015481101561009257610d6d90611295565b50805490610dc061ffff91610d89600260018301549201611320565b90604051948486958260e01c1691818160d01c1691808260c01c1691818160b01c16918160a01c169060018060a01b031689611170565b0390f35b3461009257604036600319011261009257610ddd6111c9565b6024356001600160401b03811161009257610dfc90369060040161123f565b610e30337f00000000000000000000000000000000000000000000000000000000000000006001600160a01b0316146113dc565b604051918151602093848181860193610e4a818387611128565b81016002815203019020549261ffff938484161015610ffc5784610e8d9392610e7e92604051938492839251928391611128565b81016002815203019020611417565b5080549060016004820194610ea460018401611320565b610eb060028501611320565b610ebc60038601611320565b91885495610ec9876113c5565b96610ed7604051988961121e565b808852858801809b600052866000206000915b838310610fdc575050505091610f55610f6392610f0d6005610f71979601611320565b996040519b610140918d82821690528d8a838360101c169101528d604083838d1c169101528d6060838360301c1691015260401c1660808d01528060a08d01528b019061114b565b9089820360c08b015261114b565b9087820360e089015261114b565b92858403610100870152519081845280840193818360051b82010197946000915b848310610fae578880610dc08c8b83820361012085015261114b565b90919293948480610fcb83999c601f198682030187528d5161114b565b9b0193019301919594939290610f92565b988089819c9b610feb85611320565b815201920192019190999899610eea565b60405162461bcd60e51b815260048101869052601760248201527f53657373696f6e20646f6573206e6f742065786973742e0000000000000000006044820152606490fd5b34610092576020366003190112610092576001600160a01b0360043561108a337f00000000000000000000000000000000000000000000000000000000000000008416146113dc565b6001548110156110ea5761109d90611295565b5090610dc082549261ffff906110ba600260018301549201611320565b91604051958695828260e01c1692808360d01c1692818160c01c1692828260b01c16928260a01c16911689611170565b60405162461bcd60e51b81526020600482015260166024820152752932b1b7b932103237b2b9903737ba1032bc34b9ba1760511b6044820152606490fd5b60005b83811061113b5750506000910152565b818101518382015260200161112b565b9060209161116481518092818552858086019101611128565b601f01601f1916010190565b6001600160a01b03909116815261ffff918216602082015291811660408301529182166060820152918116608083015290911660a082015260c081019190915261010060e082018190526111c69291019061114b565b90565b6004359061ffff8216820361009257565b6024359061ffff8216820361009257565b6044359061ffff8216820361009257565b6064359061ffff8216820361009257565b6084359061ffff8216820361009257565b90601f801991011681019081106001600160401b0382111761067b57604052565b81601f82011215610092578035906001600160401b03821161067b5760405192611273601f8401601f19166020018561121e565b8284526020838301011161009257816000926020809301838601378301015290565b6001548110156112d0576003906001600052027fb10e2d527612073b26eecdfd717e6a320cf44b4afac2b0732d9fcbe2b7fa0cf60190600090565b634e487b7160e01b600052603260045260246000fd5b90600182811c92168015611316575b602083101461130057565b634e487b7160e01b600052602260045260246000fd5b91607f16916112f5565b90604051918260008254611333816112e6565b908184526020946001916001811690816000146113a35750600114611364575b5050506113629250038361121e565b565b600090815285812095935091905b81831061138b5750506113629350820101388080611353565b85548884018501529485019487945091830191611372565b9250505061136294925060ff191682840152151560051b820101388080611353565b6001600160401b03811161067b5760051b60200190565b156113e357565b60405162461bcd60e51b815260206004820152600c60248201526b155b985d5d1a1bdc9a5e995960a21b6044820152606490fd5b80548210156112d0576000526006602060002091020190600090565b81811061143e575050565b6000815560010161143356fea26469706673582212209b7b1ef3f87c3ecaeccb22ea967560ee17f982e783edcd8a72dad3d61b596aa264736f6c63430008180033",
  "linkReferences": {},
  "deployedLinkReferences": {}
}