{"contracts/SmartFidget.sol":{"SmartFidget":{"abi":[{"inputs":[],"stateMutability":"nonpayable","type":"constructor"},{"anonymous":false,"inputs":[{"indexed":false,"internalType":"uint256","name":"recordId","type":"uint256"}],"name":"RecordAdded","type":"event"},{"anonymous":false,"inputs":[{"indexed":false,"internalType":"string","name":"date","type":"string"},{"indexed":false,"internalType":"uint256","name":"sessionId","type":"uint256"}],"name":"SessionAdded","type":"event"},{"inputs":[{"internalType":"uint16","name":"_avg","type":"uint16"},{"internalType":"uint16","name":"_min","type":"uint16"},{"internalType":"uint16","name":"_max","type":"uint16"},{"internalType":"uint16","name":"_main","type":"uint16"},{"internalType":"uint16","name":"_sessionCount","type":"uint16"},{"internalType":"uint256","name":"_totDuration","type":"uint256"},{"internalType":"string","name":"_date","type":"string"}],"name":"addRecord","outputs":[],"stateMutability":"nonpayable","type":"function"},{"inputs":[{"internalType":"uint16","name":"_main","type":"uint16"},{"internalType":"uint16","name":"_avg","type":"uint16"},{"internalType":"uint16","name":"_min","type":"uint16"},{"internalType":"uint16","name":"_max","type":"uint16"},{"internalType":"uint16","name":"_id","type":"uint16"},{"internalType":"string","name":"_duration","type":"string"},{"internalType":"string","name":"_date","type":"string"},{"internalType":"string","name":"_startTime","type":"string"},{"internalType":"string","name":"_endTime","type":"string"},{"internalType":"string[]","name":"_tags","type":"string[]"},{"internalType":"string","name":"_comment","type":"string"}],"name":"addSession","outputs":[],"stateMutability":"nonpayable","type":"function"},{"inputs":[{"internalType":"uint256","name":"recordId","type":"uint256"}],"name":"getRecord","outputs":[{"internalType":"address","name":"writer","type":"address"},{"internalType":"uint16","name":"avg","type":"uint16"},{"internalType":"uint16","name":"min","type":"uint16"},{"internalType":"uint16","name":"max","type":"uint16"},{"internalType":"uint16","name":"main","type":"uint16"},{"internalType":"uint16","name":"sessionCount","type":"uint16"},{"internalType":"uint256","name":"totDuration","type":"uint256"},{"internalType":"string","name":"date","type":"string"}],"stateMutability":"view","type":"function"},{"inputs":[],"name":"getRecordsCount","outputs":[{"internalType":"uint256","name":"","type":"uint256"}],"stateMutability":"view","type":"function"},{"inputs":[{"internalType":"uint16","name":"_id","type":"uint16"},{"internalType":"string","name":"_date","type":"string"}],"name":"getSession","outputs":[{"internalType":"uint16","name":"main","type":"uint16"},{"internalType":"uint16","name":"avg","type":"uint16"},{"internalType":"uint16","name":"min","type":"uint16"},{"internalType":"uint16","name":"max","type":"uint16"},{"internalType":"uint16","name":"id","type":"uint16"},{"internalType":"string","name":"duration","type":"string"},{"internalType":"string","name":"startTime","type":"string"},{"internalType":"string","name":"endTime","type":"string"},{"internalType":"string[]","name":"tags","type":"string[]"},{"internalType":"string","name":"comment","type":"string"}],"stateMutability":"view","type":"function"},{"inputs":[],"name":"owner","outputs":[{"internalType":"address","name":"","type":"address"}],"stateMutability":"view","type":"function"},{"inputs":[{"internalType":"uint256","name":"","type":"uint256"}],"name":"records","outputs":[{"internalType":"address","name":"writer","type":"address"},{"internalType":"uint16","name":"avg","type":"uint16"},{"internalType":"uint16","name":"min","type":"uint16"},{"internalType":"uint16","name":"max","type":"uint16"},{"internalType":"uint16","name":"main","type":"uint16"},{"internalType":"uint16","name":"sessionCount","type":"uint16"},{"internalType":"uint256","name":"totDuration","type":"uint256"},{"internalType":"string","name":"date","type":"string"}],"stateMutability":"view","type":"function"},{"inputs":[],"name":"recordsCount","outputs":[{"internalType":"uint256","name":"","type":"uint256"}],"stateMutability":"view","type":"function"}],"evm":{"bytecode":{"linkReferences":{},"object":"60a080604052346100455733608052611480908161004b823960805181818160ad0152818161023a01528181610ad201528181610d0b01528181610e0201526110630152f35b600080fdfe6080604052600436101561001257600080fd5b60003560e01c806303e9e6091461104157806332143d8a14610dc45780633446106714610d46578063505158bb14610cf45780635e57270b14610a6e5780637ba4f2fa146100dc5780638da5cb5b146100975763eb3dbf831461007457600080fd5b34610092576000366003190112610092576020600054604051908152f35b600080fd5b34610092576000366003190112610092576040517f00000000000000000000000000000000000000000000000000000000000000006001600160a01b03168152602090f35b3461009257610160366003190112610092576100f66111c9565b6100fe6111da565b906101076111eb565b916101106111fc565b9061011961120d565b9160a4356001600160401b0381116100925761013990369060040161123f565b9360c4356001600160401b0381116100925761015990369060040161123f565b9460e4356001600160401b0381116100925761017990369060040161123f565b90610104356001600160401b0381116100925761019a90369060040161123f565b926001600160401b0361012435116100925736602361012435011215610092576101243560040135946101cc866113c5565b956101da604051978861121e565b80875260208701903660248260051b610124350101116100925760246101243501915b60248260051b6101243501018310610a3a575050506001600160401b03610144351161009257610233366101443560040161123f565b96610268337f00000000000000000000000000000000000000000000000000000000000000006001600160a01b0316146113dc565b6040519a8b6001600160401b0361014082818101109201111761067b5761ffff8094928d82809561014083016040521690521660208d01521660408b015216606089015261ffff8616608089015260a088015260c087015260e086015261010085015261012084015260405160208184516102e68183858901611128565b810160028152030190208054600160401b81101561067b5761030d91600182018155611417565b610a24578351815460208087015160408089015160608a015160808b015169ffffffffffffffffffff1990961661ffff979097169690961760109390931b63ffff000016929092179190921b65ffff00000000161760309390931b67ffff0000000000001692909217911b69ffff00000000000000001617815560a08401518051906001600160401b03821161067b576103aa60018401546112e6565b601f81116109ef575b50602090601f831160011461097d576103e5929160009183610824575b50508160011b916000199060031b1c19161790565b60018201555b60c08401518051906001600160401b03821161067b5761040e60028401546112e6565b601f8111610948575b50602090601f83116001146108d6576104489291600091836108245750508160011b916000199060031b1c19161790565b60028201555b60e08401518051906001600160401b03821161067b5761047160038401546112e6565b601f81116108a1575b50602090601f831160011461082f576104ab9291600091836108245750508160011b916000199060031b1c19161790565b60038201555b610100840151805190600160401b821161067b5760048301548260048501558083106107ac575b5060200190600483016000526020600020916000905b8282106106915750505050600561012091019301519283516001600160401b03811161067b5761051e82546112e6565b601f811161063e575b506020601f82116001146105b057816105999594939261057f927f83c340f8b0e7179e29631d50bd796527c5b1084dce9f1a6b9dc4cabae635dd29986000926105a55750508160011b916000199060031b1c19161790565b90555b61ffff60405193849360408552604085019061114b565b911660208301520390a1005b0151905088806103d0565b601f198216958360005260206000209660005b8181106106265750966001928492610599989796957f83c340f8b0e7179e29631d50bd796527c5b1084dce9f1a6b9dc4cabae635dd299a1061060d575b505050811b019055610582565b015160001960f88460031b161c19169055878080610600565b838301518955600190980197602093840193016105c3565b61066b90836000526020600020601f840160051c81019160208510610671575b601f0160051c0190611433565b85610527565b909150819061065e565b634e487b7160e01b600052604160045260246000fd5b80518051906001600160401b03821161067b576106ae86546112e6565b601f811161077a575b50602090601f831160011461070a57926106f0836001959460209487966000926106ff5750508160011b916000199060031b1c19161790565b87555b019401910190926104ee565b015190508e806103d0565b908660005260206000209160005b601f1985168110610762575083602093600196938796938794601f19811610610749575b505050811b0187556106f3565b015160001960f88460031b161c191690558d808061073c565b91926020600181928685015181550194019201610718565b6107a690876000526020600020601f850160051c8101916020861061067157601f0160051c0190611433565b8a6106b7565b600484016000526020600020908382015b81830181106107cd5750506104d8565b806107da600192546112e6565b806107e7575b50016107bd565b601f811183146107fd5750600081555b8a6107e0565b60009082825261081b601f60208420920160051c8201858301611433565b818355556107f7565b0151905087806103d0565b9190600384016000526020600020906000935b601f1984168510610886576001945083601f1981161061086d575b505050811b0160038201556104b1565b015160001960f88460031b161c1916905586808061085d565b81810151835560209485019460019093019290910190610842565b6108d090600385016000526020600020601f850160051c8101916020861061067157601f0160051c0190611433565b8661047a565b9190600284016000526020600020906000935b601f198416851061092d576001945083601f19811610610914575b505050811b01600282015561044e565b015160001960f88460031b161c19169055868080610904565b818101518355602094850194600190930192909101906108e9565b61097790600285016000526020600020601f850160051c8101916020861061067157601f0160051c0190611433565b86610417565b9190600184016000526020600020906000935b601f19841685106109d4576001945083601f198116106109bb575b505050811b0160018201556103eb565b015160001960f88460031b161c191690558680806109ab565b81810151835560209485019460019093019290910190610990565b610a1e90600185016000526020600020601f850160051c8101916020861061067157601f0160051c0190611433565b866103b3565b634e487b7160e01b600052600060045260246000fd5b6001600160401b0383351161009257602080602492610a613685883561012435010161123f565b81520193019290506101fd565b346100925760e036600319011261009257610a876111c9565b610a8f6111da565b610a976111eb565b91610aa06111fc565b92610aa961120d565b926001600160401b039260c43584811161009257610acb90369060040161123f565b94610b00337f00000000000000000000000000000000000000000000000000000000000000006001600160a01b0316146113dc565b600196875494600160401b86101561067b57610b22868a600298018b55611295565b5080546001600160f01b03191669ffffffffffffffffffff60a01b1933161760a09590951b61ffff60a01b169490941760b09590951b61ffff60b01b169490941760c09490941b61ffff60c01b169390931760d09390931b61ffff60d01b169290921760e09290921b61ffff60e01b1691909117815560a4358582015583519101929091821161067b57610bb683546112e6565b601f8111610cc2575b50602090601f8311600114610c6057610bf0929160009183610c555750508160011b916000199060031b1c19161790565b90555b6000546000199190828114610c3f57810160005554908101908111610c3f5760207fd1959b6f21a13d63764a45c846f4a58f7e55291fb17591ff1d1b3fd4c2953e4591604051908152a1005b634e487b7160e01b600052601160045260246000fd5b0151905085806103d0565b849291601f1983169185600052816000209260005b818110610caa57508411610c91575b505050811b019055610bf3565b015160001960f88460031b161c19169055848080610c84565b82840151855588969094019360209384019301610c75565b610cee90846000526020600020601f850160051c8101916020861061067157601f0160051c0190611433565b84610bbf565b3461009257600036600319011261009257610d39337f00000000000000000000000000000000000000000000000000000000000000006001600160a01b0316146113dc565b6020600154604051908152f35b346100925760203660031901126100925760043560015481101561009257610d6d90611295565b50805490610dc061ffff91610d89600260018301549201611320565b90604051948486958260e01c1691818160d01c1691808260c01c1691818160b01c16918160a01c169060018060a01b031689611170565b0390f35b3461009257604036600319011261009257610ddd6111c9565b6024356001600160401b03811161009257610dfc90369060040161123f565b610e30337f00000000000000000000000000000000000000000000000000000000000000006001600160a01b0316146113dc565b604051918151602093848181860193610e4a818387611128565b81016002815203019020549261ffff938484161015610ffc5784610e8d9392610e7e92604051938492839251928391611128565b81016002815203019020611417565b5080549060016004820194610ea460018401611320565b610eb060028501611320565b610ebc60038601611320565b91885495610ec9876113c5565b96610ed7604051988961121e565b808852858801809b600052866000206000915b838310610fdc575050505091610f55610f6392610f0d6005610f71979601611320565b996040519b610140918d82821690528d8a838360101c169101528d604083838d1c169101528d6060838360301c1691015260401c1660808d01528060a08d01528b019061114b565b9089820360c08b015261114b565b9087820360e089015261114b565b92858403610100870152519081845280840193818360051b82010197946000915b848310610fae578880610dc08c8b83820361012085015261114b565b90919293948480610fcb83999c601f198682030187528d5161114b565b9b0193019301919594939290610f92565b988089819c9b610feb85611320565b815201920192019190999899610eea565b60405162461bcd60e51b815260048101869052601760248201527f53657373696f6e20646f6573206e6f742065786973742e0000000000000000006044820152606490fd5b34610092576020366003190112610092576001600160a01b0360043561108a337f00000000000000000000000000000000000000000000000000000000000000008416146113dc565b6001548110156110ea5761109d90611295565b5090610dc082549261ffff906110ba600260018301549201611320565b91604051958695828260e01c1692808360d01c1692818160c01c1692828260b01c16928260a01c16911689611170565b60405162461bcd60e51b81526020600482015260166024820152752932b1b7b932103237b2b9903737ba1032bc34b9ba1760511b6044820152606490fd5b60005b83811061113b5750506000910152565b818101518382015260200161112b565b9060209161116481518092818552858086019101611128565b601f01601f1916010190565b6001600160a01b03909116815261ffff918216602082015291811660408301529182166060820152918116608083015290911660a082015260c081019190915261010060e082018190526111c69291019061114b565b90565b6004359061ffff8216820361009257565b6024359061ffff8216820361009257565b6044359061ffff8216820361009257565b6064359061ffff8216820361009257565b6084359061ffff8216820361009257565b90601f801991011681019081106001600160401b0382111761067b57604052565b81601f82011215610092578035906001600160401b03821161067b5760405192611273601f8401601f19166020018561121e565b8284526020838301011161009257816000926020809301838601378301015290565b6001548110156112d0576003906001600052027fb10e2d527612073b26eecdfd717e6a320cf44b4afac2b0732d9fcbe2b7fa0cf60190600090565b634e487b7160e01b600052603260045260246000fd5b90600182811c92168015611316575b602083101461130057565b634e487b7160e01b600052602260045260246000fd5b91607f16916112f5565b90604051918260008254611333816112e6565b908184526020946001916001811690816000146113a35750600114611364575b5050506113629250038361121e565b565b600090815285812095935091905b81831061138b5750506113629350820101388080611353565b85548884018501529485019487945091830191611372565b9250505061136294925060ff191682840152151560051b820101388080611353565b6001600160401b03811161067b5760051b60200190565b156113e357565b60405162461bcd60e51b815260206004820152600c60248201526b155b985d5d1a1bdc9a5e995960a21b6044820152606490fd5b80548210156112d0576000526006602060002091020190600090565b81811061143e575050565b6000815560010161143356fea26469706673582212209b7b1ef3f87c3ecaeccb22ea967560ee17f982e783edcd8a72dad3d61b596aa264736f6c63430008180033","opcodes":"PUSH1 0xA0 DUP1 PUSH1 0x40 MSTORE CALLVALUE PUSH2 0x45 JUMPI CALLER PUSH1 0x80 MSTORE PUSH2 0x1480 SWAP1 DUP2 PUSH2 0x4B DUP3 CODECOPY PUSH1 0x80 MLOAD DUP2 DUP2 DUP2 PUSH1 0xAD ADD MSTORE DUP2 DUP2 PUSH2 0x23A ADD MSTORE DUP2 DUP2 PUSH2 0xAD2 ADD MSTORE DUP2 DUP2 PUSH2 0xD0B ADD MSTORE DUP2 DUP2 PUSH2 0xE02 ADD MSTORE PUSH2 0x1063 ADD MSTORE RETURN JUMPDEST PUSH1 0x0 DUP1 REVERT INVALID PUSH1 0x80 PUSH1 0x40 MSTORE PUSH1 0x4 CALLDATASIZE LT ISZERO PUSH2 0x12 JUMPI PUSH1 0x0 DUP1 REVERT JUMPDEST PUSH1 0x0 CALLDATALOAD PUSH1 0xE0 SHR DUP1 PUSH4 0x3E9E609 EQ PUSH2 0x1041 JUMPI DUP1 PUSH4 0x32143D8A EQ PUSH2 0xDC4 JUMPI DUP1 PUSH4 0x34461067 EQ PUSH2 0xD46 JUMPI DUP1 PUSH4 0x505158BB EQ PUSH2 0xCF4 JUMPI DUP1 PUSH4 0x5E57270B EQ PUSH2 0xA6E JUMPI DUP1 PUSH4 0x7BA4F2FA EQ PUSH2 0xDC JUMPI DUP1 PUSH4 0x8DA5CB5B EQ PUSH2 0x97 JUMPI PUSH4 0xEB3DBF83 EQ PUSH2 0x74 JUMPI PUSH1 0x0 DUP1 REVERT JUMPDEST CALLVALUE PUSH2 0x92 JUMPI PUSH1 0x0 CALLDATASIZE PUSH1 0x3 NOT ADD SLT PUSH2 0x92 JUMPI PUSH1 0x20 PUSH1 0x0 SLOAD PUSH1 0x40 MLOAD SWAP1 DUP2 MSTORE RETURN JUMPDEST PUSH1 0x0 DUP1 REVERT JUMPDEST CALLVALUE PUSH2 0x92 JUMPI PUSH1 0x0 CALLDATASIZE PUSH1 0x3 NOT ADD SLT PUSH2 0x92 JUMPI PUSH1 0x40 MLOAD PUSH32 0x0 PUSH1 0x1 PUSH1 0x1 PUSH1 0xA0 SHL SUB AND DUP2 MSTORE PUSH1 0x20 SWAP1 RETURN JUMPDEST CALLVALUE PUSH2 0x92 JUMPI PUSH2 0x160 CALLDATASIZE PUSH1 0x3 NOT ADD SLT PUSH2 0x92 JUMPI PUSH2 0xF6 PUSH2 0x11C9 JUMP JUMPDEST PUSH2 0xFE PUSH2 0x11DA JUMP JUMPDEST SWAP1 PUSH2 0x107 PUSH2 0x11EB JUMP JUMPDEST SWAP2 PUSH2 0x110 PUSH2 0x11FC JUMP JUMPDEST SWAP1 PUSH2 0x119 PUSH2 0x120D JUMP JUMPDEST SWAP2 PUSH1 0xA4 CALLDATALOAD PUSH1 0x1 PUSH1 0x1 PUSH1 0x40 SHL SUB DUP2 GT PUSH2 0x92 JUMPI PUSH2 0x139 SWAP1 CALLDATASIZE SWAP1 PUSH1 0x4 ADD PUSH2 0x123F JUMP JUMPDEST SWAP4 PUSH1 0xC4 CALLDATALOAD PUSH1 0x1 PUSH1 0x1 PUSH1 0x40 SHL SUB DUP2 GT PUSH2 0x92 JUMPI PUSH2 0x159 SWAP1 CALLDATASIZE SWAP1 PUSH1 0x4 ADD PUSH2 0x123F JUMP JUMPDEST SWAP5 PUSH1 0xE4 CALLDATALOAD PUSH1 0x1 PUSH1 0x1 PUSH1 0x40 SHL SUB DUP2 GT PUSH2 0x92 JUMPI PUSH2 0x179 SWAP1 CALLDATASIZE SWAP1 PUSH1 0x4 ADD PUSH2 0x123F JUMP JUMPDEST SWAP1 PUSH2 0x104 CALLDATALOAD PUSH1 0x1 PUSH1 0x1 PUSH1 0x40 SHL SUB DUP2 GT PUSH2 0x92 JUMPI PUSH2 0x19A SWAP1 CALLDATASIZE SWAP1 PUSH1 0x4 ADD PUSH2 0x123F JUMP JUMPDEST SWAP3 PUSH1 0x1 PUSH1 0x1 PUSH1 0x40 SHL SUB PUSH2 0x124 CALLDATALOAD GT PUSH2 0x92 JUMPI CALLDATASIZE PUSH1 0x23 PUSH2 0x124 CALLDATALOAD ADD SLT ISZERO PUSH2 0x92 JUMPI PUSH2 0x124 CALLDATALOAD PUSH1 0x4 ADD CALLDATALOAD SWAP5 PUSH2 0x1CC DUP7 PUSH2 0x13C5 JUMP JUMPDEST SWAP6 PUSH2 0x1DA PUSH1 0x40 MLOAD SWAP8 DUP9 PUSH2 0x121E JUMP JUMPDEST DUP1 DUP8 MSTORE PUSH1 0x20 DUP8 ADD SWAP1 CALLDATASIZE PUSH1 0x24 DUP3 PUSH1 0x5 SHL PUSH2 0x124 CALLDATALOAD ADD ADD GT PUSH2 0x92 JUMPI PUSH1 0x24 PUSH2 0x124 CALLDATALOAD ADD SWAP2 JUMPDEST PUSH1 0x24 DUP3 PUSH1 0x5 SHL PUSH2 0x124 CALLDATALOAD ADD ADD DUP4 LT PUSH2 0xA3A JUMPI POP POP POP PUSH1 0x1 PUSH1 0x1 PUSH1 0x40 SHL SUB PUSH2 0x144 CALLDATALOAD GT PUSH2 0x92 JUMPI PUSH2 0x233 CALLDATASIZE PUSH2 0x144 CALLDATALOAD PUSH1 0x4 ADD PUSH2 0x123F JUMP JUMPDEST SWAP7 PUSH2 0x268 CALLER PUSH32 0x0 PUSH1 0x1 PUSH1 0x1 PUSH1 0xA0 SHL SUB AND EQ PUSH2 0x13DC JUMP JUMPDEST PUSH1 0x40 MLOAD SWAP11 DUP12 PUSH1 0x1 PUSH1 0x1 PUSH1 0x40 SHL SUB PUSH2 0x140 DUP3 DUP2 DUP2 ADD LT SWAP3 ADD GT OR PUSH2 0x67B JUMPI PUSH2 0xFFFF DUP1 SWAP5 SWAP3 DUP14 DUP3 DUP1 SWAP6 PUSH2 0x140 DUP4 ADD PUSH1 0x40 MSTORE AND SWAP1 MSTORE AND PUSH1 0x20 DUP14 ADD MSTORE AND PUSH1 0x40 DUP12 ADD MSTORE AND PUSH1 0x60 DUP10 ADD MSTORE PUSH2 0xFFFF DUP7 AND PUSH1 0x80 DUP10 ADD MSTORE PUSH1 0xA0 DUP9 ADD MSTORE PUSH1 0xC0 DUP8 ADD MSTORE PUSH1 0xE0 DUP7 ADD MSTORE PUSH2 0x100 DUP6 ADD MSTORE PUSH2 0x120 DUP5 ADD MSTORE PUSH1 0x40 MLOAD PUSH1 0x20 DUP2 DUP5 MLOAD PUSH2 0x2E6 DUP2 DUP4 DUP6 DUP10 ADD PUSH2 0x1128 JUMP JUMPDEST DUP2 ADD PUSH1 0x2 DUP2 MSTORE SUB ADD SWAP1 KECCAK256 DUP1 SLOAD PUSH1 0x1 PUSH1 0x40 SHL DUP2 LT ISZERO PUSH2 0x67B JUMPI PUSH2 0x30D SWAP2 PUSH1 0x1 DUP3 ADD DUP2 SSTORE PUSH2 0x1417 JUMP JUMPDEST PUSH2 0xA24 JUMPI DUP4 MLOAD DUP2 SLOAD PUSH1 0x20 DUP1 DUP8 ADD MLOAD PUSH1 0x40 DUP1 DUP10 ADD MLOAD PUSH1 0x60 DUP11 ADD MLOAD PUSH1 0x80 DUP12 ADD MLOAD PUSH10 0xFFFFFFFFFFFFFFFFFFFF NOT SWAP1 SWAP7 AND PUSH2 0xFFFF SWAP8 SWAP1 SWAP8 AND SWAP7 SWAP1 SWAP7 OR PUSH1 0x10 SWAP4 SWAP1 SWAP4 SHL PUSH4 0xFFFF0000 AND SWAP3 SWAP1 SWAP3 OR SWAP2 SWAP1 SWAP3 SHL PUSH6 0xFFFF00000000 AND OR PUSH1 0x30 SWAP4 SWAP1 SWAP4 SHL PUSH8 0xFFFF000000000000 AND SWAP3 SWAP1 SWAP3 OR SWAP2 SHL PUSH10 0xFFFF0000000000000000 AND OR DUP2 SSTORE PUSH1 0xA0 DUP5 ADD MLOAD DUP1 MLOAD SWAP1 PUSH1 0x1 PUSH1 0x1 PUSH1 0x40 SHL SUB DUP3 GT PUSH2 0x67B JUMPI PUSH2 0x3AA PUSH1 0x1 DUP5 ADD SLOAD PUSH2 0x12E6 JUMP JUMPDEST PUSH1 0x1F DUP2 GT PUSH2 0x9EF JUMPI JUMPDEST POP PUSH1 0x20 SWAP1 PUSH1 0x1F DUP4 GT PUSH1 0x1 EQ PUSH2 0x97D JUMPI PUSH2 0x3E5 SWAP3 SWAP2 PUSH1 0x0 SWAP2 DUP4 PUSH2 0x824 JUMPI JUMPDEST POP POP DUP2 PUSH1 0x1 SHL SWAP2 PUSH1 0x0 NOT SWAP1 PUSH1 0x3 SHL SHR NOT AND OR SWAP1 JUMP JUMPDEST PUSH1 0x1 DUP3 ADD SSTORE JUMPDEST PUSH1 0xC0 DUP5 ADD MLOAD DUP1 MLOAD SWAP1 PUSH1 0x1 PUSH1 0x1 PUSH1 0x40 SHL SUB DUP3 GT PUSH2 0x67B JUMPI PUSH2 0x40E PUSH1 0x2 DUP5 ADD SLOAD PUSH2 0x12E6 JUMP JUMPDEST PUSH1 0x1F DUP2 GT PUSH2 0x948 JUMPI JUMPDEST POP PUSH1 0x20 SWAP1 PUSH1 0x1F DUP4 GT PUSH1 0x1 EQ PUSH2 0x8D6 JUMPI PUSH2 0x448 SWAP3 SWAP2 PUSH1 0x0 SWAP2 DUP4 PUSH2 0x824 JUMPI POP POP DUP2 PUSH1 0x1 SHL SWAP2 PUSH1 0x0 NOT SWAP1 PUSH1 0x3 SHL SHR NOT AND OR SWAP1 JUMP JUMPDEST PUSH1 0x2 DUP3 ADD SSTORE JUMPDEST PUSH1 0xE0 DUP5 ADD MLOAD DUP1 MLOAD SWAP1 PUSH1 0x1 PUSH1 0x1 PUSH1 0x40 SHL SUB DUP3 GT PUSH2 0x67B JUMPI PUSH2 0x471 PUSH1 0x3 DUP5 ADD SLOAD PUSH2 0x12E6 JUMP JUMPDEST PUSH1 0x1F DUP2 GT PUSH2 0x8A1 JUMPI JUMPDEST POP PUSH1 0x20 SWAP1 PUSH1 0x1F DUP4 GT PUSH1 0x1 EQ PUSH2 0x82F JUMPI PUSH2 0x4AB SWAP3 SWAP2 PUSH1 0x0 SWAP2 DUP4 PUSH2 0x824 JUMPI POP POP DUP2 PUSH1 0x1 SHL SWAP2 PUSH1 0x0 NOT SWAP1 PUSH1 0x3 SHL SHR NOT AND OR SWAP1 JUMP JUMPDEST PUSH1 0x3 DUP3 ADD SSTORE JUMPDEST PUSH2 0x100 DUP5 ADD MLOAD DUP1 MLOAD SWAP1 PUSH1 0x1 PUSH1 0x40 SHL DUP3 GT PUSH2 0x67B JUMPI PUSH1 0x4 DUP4 ADD SLOAD DUP3 PUSH1 0x4 DUP6 ADD SSTORE DUP1 DUP4 LT PUSH2 0x7AC JUMPI JUMPDEST POP PUSH1 0x20 ADD SWAP1 PUSH1 0x4 DUP4 ADD PUSH1 0x0 MSTORE PUSH1 0x20 PUSH1 0x0 KECCAK256 SWAP2 PUSH1 0x0 SWAP1 JUMPDEST DUP3 DUP3 LT PUSH2 0x691 JUMPI POP POP POP POP PUSH1 0x5 PUSH2 0x120 SWAP2 ADD SWAP4 ADD MLOAD SWAP3 DUP4 MLOAD PUSH1 0x1 PUSH1 0x1 PUSH1 0x40 SHL SUB DUP2 GT PUSH2 0x67B JUMPI PUSH2 0x51E DUP3 SLOAD PUSH2 0x12E6 JUMP JUMPDEST PUSH1 0x1F DUP2 GT PUSH2 0x63E JUMPI JUMPDEST POP PUSH1 0x20 PUSH1 0x1F DUP3 GT PUSH1 0x1 EQ PUSH2 0x5B0 JUMPI DUP2 PUSH2 0x599 SWAP6 SWAP5 SWAP4 SWAP3 PUSH2 0x57F SWAP3 PUSH32 0x83C340F8B0E7179E29631D50BD796527C5B1084DCE9F1A6B9DC4CABAE635DD29 SWAP9 PUSH1 0x0 SWAP3 PUSH2 0x5A5 JUMPI POP POP DUP2 PUSH1 0x1 SHL SWAP2 PUSH1 0x0 NOT SWAP1 PUSH1 0x3 SHL SHR NOT AND OR SWAP1 JUMP JUMPDEST SWAP1 SSTORE JUMPDEST PUSH2 0xFFFF PUSH1 0x40 MLOAD SWAP4 DUP5 SWAP4 PUSH1 0x40 DUP6 MSTORE PUSH1 0x40 DUP6 ADD SWAP1 PUSH2 0x114B JUMP JUMPDEST SWAP2 AND PUSH1 0x20 DUP4 ADD MSTORE SUB SWAP1 LOG1 STOP JUMPDEST ADD MLOAD SWAP1 POP DUP9 DUP1 PUSH2 0x3D0 JUMP JUMPDEST PUSH1 0x1F NOT DUP3 AND SWAP6 DUP4 PUSH1 0x0 MSTORE PUSH1 0x20 PUSH1 0x0 KECCAK256 SWAP7 PUSH1 0x0 JUMPDEST DUP2 DUP2 LT PUSH2 0x626 JUMPI POP SWAP7 PUSH1 0x1 SWAP3 DUP5 SWAP3 PUSH2 0x599 SWAP9 SWAP8 SWAP7 SWAP6 PUSH32 0x83C340F8B0E7179E29631D50BD796527C5B1084DCE9F1A6B9DC4CABAE635DD29 SWAP11 LT PUSH2 0x60D JUMPI JUMPDEST POP POP POP DUP2 SHL ADD SWAP1 SSTORE PUSH2 0x582 JUMP JUMPDEST ADD MLOAD PUSH1 0x0 NOT PUSH1 0xF8 DUP5 PUSH1 0x3 SHL AND SHR NOT AND SWAP1 SSTORE DUP8 DUP1 DUP1 PUSH2 0x600 JUMP JUMPDEST DUP4 DUP4 ADD MLOAD DUP10 SSTORE PUSH1 0x1 SWAP1 SWAP9 ADD SWAP8 PUSH1 0x20 SWAP4 DUP5 ADD SWAP4 ADD PUSH2 0x5C3 JUMP JUMPDEST PUSH2 0x66B SWAP1 DUP4 PUSH1 0x0 MSTORE PUSH1 0x20 PUSH1 0x0 KECCAK256 PUSH1 0x1F DUP5 ADD PUSH1 0x5 SHR DUP2 ADD SWAP2 PUSH1 0x20 DUP6 LT PUSH2 0x671 JUMPI JUMPDEST PUSH1 0x1F ADD PUSH1 0x5 SHR ADD SWAP1 PUSH2 0x1433 JUMP JUMPDEST DUP6 PUSH2 0x527 JUMP JUMPDEST SWAP1 SWAP2 POP DUP2 SWAP1 PUSH2 0x65E JUMP JUMPDEST PUSH4 0x4E487B71 PUSH1 0xE0 SHL PUSH1 0x0 MSTORE PUSH1 0x41 PUSH1 0x4 MSTORE PUSH1 0x24 PUSH1 0x0 REVERT JUMPDEST DUP1 MLOAD DUP1 MLOAD SWAP1 PUSH1 0x1 PUSH1 0x1 PUSH1 0x40 SHL SUB DUP3 GT PUSH2 0x67B JUMPI PUSH2 0x6AE DUP7 SLOAD PUSH2 0x12E6 JUMP JUMPDEST PUSH1 0x1F DUP2 GT PUSH2 0x77A JUMPI JUMPDEST POP PUSH1 0x20 SWAP1 PUSH1 0x1F DUP4 GT PUSH1 0x1 EQ PUSH2 0x70A JUMPI SWAP3 PUSH2 0x6F0 DUP4 PUSH1 0x1 SWAP6 SWAP5 PUSH1 0x20 SWAP5 DUP8 SWAP7 PUSH1 0x0 SWAP3 PUSH2 0x6FF JUMPI POP POP DUP2 PUSH1 0x1 SHL SWAP2 PUSH1 0x0 NOT SWAP1 PUSH1 0x3 SHL SHR NOT AND OR SWAP1 JUMP JUMPDEST DUP8 SSTORE JUMPDEST ADD SWAP5 ADD SWAP2 ADD SWAP1 SWAP3 PUSH2 0x4EE JUMP JUMPDEST ADD MLOAD SWAP1 POP DUP15 DUP1 PUSH2 0x3D0 JUMP JUMPDEST SWAP1 DUP7 PUSH1 0x0 MSTORE PUSH1 0x20 PUSH1 0x0 KECCAK256 SWAP2 PUSH1 0x0 JUMPDEST PUSH1 0x1F NOT DUP6 AND DUP2 LT PUSH2 0x762 JUMPI POP DUP4 PUSH1 0x20 SWAP4 PUSH1 0x1 SWAP7 SWAP4 DUP8 SWAP7 SWAP4 DUP8 SWAP5 PUSH1 0x1F NOT DUP2 AND LT PUSH2 0x749 JUMPI JUMPDEST POP POP POP DUP2 SHL ADD DUP8 SSTORE PUSH2 0x6F3 JUMP JUMPDEST ADD MLOAD PUSH1 0x0 NOT PUSH1 0xF8 DUP5 PUSH1 0x3 SHL AND SHR NOT AND SWAP1 SSTORE DUP14 DUP1 DUP1 PUSH2 0x73C JUMP JUMPDEST SWAP2 SWAP3 PUSH1 0x20 PUSH1 0x1 DUP2 SWAP3 DUP7 DUP6 ADD MLOAD DUP2 SSTORE ADD SWAP5 ADD SWAP3 ADD PUSH2 0x718 JUMP JUMPDEST PUSH2 0x7A6 SWAP1 DUP8 PUSH1 0x0 MSTORE PUSH1 0x20 PUSH1 0x0 KECCAK256 PUSH1 0x1F DUP6 ADD PUSH1 0x5 SHR DUP2 ADD SWAP2 PUSH1 0x20 DUP7 LT PUSH2 0x671 JUMPI PUSH1 0x1F ADD PUSH1 0x5 SHR ADD SWAP1 PUSH2 0x1433 JUMP JUMPDEST DUP11 PUSH2 0x6B7 JUMP JUMPDEST PUSH1 0x4 DUP5 ADD PUSH1 0x0 MSTORE PUSH1 0x20 PUSH1 0x0 KECCAK256 SWAP1 DUP4 DUP3 ADD JUMPDEST DUP2 DUP4 ADD DUP2 LT PUSH2 0x7CD JUMPI POP POP PUSH2 0x4D8 JUMP JUMPDEST DUP1 PUSH2 0x7DA PUSH1 0x1 SWAP3 SLOAD PUSH2 0x12E6 JUMP JUMPDEST DUP1 PUSH2 0x7E7 JUMPI JUMPDEST POP ADD PUSH2 0x7BD JUMP JUMPDEST PUSH1 0x1F DUP2 GT DUP4 EQ PUSH2 0x7FD JUMPI POP PUSH1 0x0 DUP2 SSTORE JUMPDEST DUP11 PUSH2 0x7E0 JUMP JUMPDEST PUSH1 0x0 SWAP1 DUP3 DUP3 MSTORE PUSH2 0x81B PUSH1 0x1F PUSH1 0x20 DUP5 KECCAK256 SWAP3 ADD PUSH1 0x5 SHR DUP3 ADD DUP6 DUP4 ADD PUSH2 0x1433 JUMP JUMPDEST DUP2 DUP4 SSTORE SSTORE PUSH2 0x7F7 JUMP JUMPDEST ADD MLOAD SWAP1 POP DUP8 DUP1 PUSH2 0x3D0 JUMP JUMPDEST SWAP2 SWAP1 PUSH1 0x3 DUP5 ADD PUSH1 0x0 MSTORE PUSH1 0x20 PUSH1 0x0 KECCAK256 SWAP1 PUSH1 0x0 SWAP4 JUMPDEST PUSH1 0x1F NOT DUP5 AND DUP6 LT PUSH2 0x886 JUMPI PUSH1 0x1 SWAP5 POP DUP4 PUSH1 0x1F NOT DUP2 AND LT PUSH2 0x86D JUMPI JUMPDEST POP POP POP DUP2 SHL ADD PUSH1 0x3 DUP3 ADD SSTORE PUSH2 0x4B1 JUMP JUMPDEST ADD MLOAD PUSH1 0x0 NOT PUSH1 0xF8 DUP5 PUSH1 0x3 SHL AND SHR NOT AND SWAP1 SSTORE DUP7 DUP1 DUP1 PUSH2 0x85D JUMP JUMPDEST DUP2 DUP2 ADD MLOAD DUP4 SSTORE PUSH1 0x20 SWAP5 DUP6 ADD SWAP5 PUSH1 0x1 SWAP1 SWAP4 ADD SWAP3 SWAP1 SWAP2 ADD SWAP1 PUSH2 0x842 JUMP JUMPDEST PUSH2 0x8D0 SWAP1 PUSH1 0x3 DUP6 ADD PUSH1 0x0 MSTORE PUSH1 0x20 PUSH1 0x0 KECCAK256 PUSH1 0x1F DUP6 ADD PUSH1 0x5 SHR DUP2 ADD SWAP2 PUSH1 0x20 DUP7 LT PUSH2 0x671 JUMPI PUSH1 0x1F ADD PUSH1 0x5 SHR ADD SWAP1 PUSH2 0x1433 JUMP JUMPDEST DUP7 PUSH2 0x47A JUMP JUMPDEST SWAP2 SWAP1 PUSH1 0x2 DUP5 ADD PUSH1 0x0 MSTORE PUSH1 0x20 PUSH1 0x0 KECCAK256 SWAP1 PUSH1 0x0 SWAP4 JUMPDEST PUSH1 0x1F NOT DUP5 AND DUP6 LT PUSH2 0x92D JUMPI PUSH1 0x1 SWAP5 POP DUP4 PUSH1 0x1F NOT DUP2 AND LT PUSH2 0x914 JUMPI JUMPDEST POP POP POP DUP2 SHL ADD PUSH1 0x2 DUP3 ADD SSTORE PUSH2 0x44E JUMP JUMPDEST ADD MLOAD PUSH1 0x0 NOT PUSH1 0xF8 DUP5 PUSH1 0x3 SHL AND SHR NOT AND SWAP1 SSTORE DUP7 DUP1 DUP1 PUSH2 0x904 JUMP JUMPDEST DUP2 DUP2 ADD MLOAD DUP4 SSTORE PUSH1 0x20 SWAP5 DUP6 ADD SWAP5 PUSH1 0x1 SWAP1 SWAP4 ADD SWAP3 SWAP1 SWAP2 ADD SWAP1 PUSH2 0x8E9 JUMP JUMPDEST PUSH2 0x977 SWAP1 PUSH1 0x2 DUP6 ADD PUSH1 0x0 MSTORE PUSH1 0x20 PUSH1 0x0 KECCAK256 PUSH1 0x1F DUP6 ADD PUSH1 0x5 SHR DUP2 ADD SWAP2 PUSH1 0x20 DUP7 LT PUSH2 0x671 JUMPI PUSH1 0x1F ADD PUSH1 0x5 SHR ADD SWAP1 PUSH2 0x1433 JUMP JUMPDEST DUP7 PUSH2 0x417 JUMP JUMPDEST SWAP2 SWAP1 PUSH1 0x1 DUP5 ADD PUSH1 0x0 MSTORE PUSH1 0x20 PUSH1 0x0 KECCAK256 SWAP1 PUSH1 0x0 SWAP4 JUMPDEST PUSH1 0x1F NOT DUP5 AND DUP6 LT PUSH2 0x9D4 JUMPI PUSH1 0x1 SWAP5 POP DUP4 PUSH1 0x1F NOT DUP2 AND LT PUSH2 0x9BB JUMPI JUMPDEST POP POP POP DUP2 SHL ADD PUSH1 0x1 DUP3 ADD SSTORE PUSH2 0x3EB JUMP JUMPDEST ADD MLOAD PUSH1 0x0 NOT PUSH1 0xF8 DUP5 PUSH1 0x3 SHL AND SHR NOT AND SWAP1 SSTORE DUP7 DUP1 DUP1 PUSH2 0x9AB JUMP JUMPDEST DUP2 DUP2 ADD MLOAD DUP4 SSTORE PUSH1 0x20 SWAP5 DUP6 ADD SWAP5 PUSH1 0x1 SWAP1 SWAP4 ADD SWAP3 SWAP1 SWAP2 ADD SWAP1 PUSH2 0x990 JUMP JUMPDEST PUSH2 0xA1E SWAP1 PUSH1 0x1 DUP6 ADD PUSH1 0x0 MSTORE PUSH1 0x20 PUSH1 0x0 KECCAK256 PUSH1 0x1F DUP6 ADD PUSH1 0x5 SHR DUP2 ADD SWAP2 PUSH1 0x20 DUP7 LT PUSH2 0x671 JUMPI PUSH1 0x1F ADD PUSH1 0x5 SHR ADD SWAP1 PUSH2 0x1433 JUMP JUMPDEST DUP7 PUSH2 0x3B3 JUMP JUMPDEST PUSH4 0x4E487B71 PUSH1 0xE0 SHL PUSH1 0x0 MSTORE PUSH1 0x0 PUSH1 0x4 MSTORE PUSH1 0x24 PUSH1 0x0 REVERT JUMPDEST PUSH1 0x1 PUSH1 0x1 PUSH1 0x40 SHL SUB DUP4 CALLDATALOAD GT PUSH2 0x92 JUMPI PUSH1 0x20 DUP1 PUSH1 0x24 SWAP3 PUSH2 0xA61 CALLDATASIZE DUP6 DUP9 CALLDATALOAD PUSH2 0x124 CALLDATALOAD ADD ADD PUSH2 0x123F JUMP JUMPDEST DUP2 MSTORE ADD SWAP4 ADD SWAP3 SWAP1 POP PUSH2 0x1FD JUMP JUMPDEST CALLVALUE PUSH2 0x92 JUMPI PUSH1 0xE0 CALLDATASIZE PUSH1 0x3 NOT ADD SLT PUSH2 0x92 JUMPI PUSH2 0xA87 PUSH2 0x11C9 JUMP JUMPDEST PUSH2 0xA8F PUSH2 0x11DA JUMP JUMPDEST PUSH2 0xA97 PUSH2 0x11EB JUMP JUMPDEST SWAP2 PUSH2 0xAA0 PUSH2 0x11FC JUMP JUMPDEST SWAP3 PUSH2 0xAA9 PUSH2 0x120D JUMP JUMPDEST SWAP3 PUSH1 0x1 PUSH1 0x1 PUSH1 0x40 SHL SUB SWAP3 PUSH1 0xC4 CALLDATALOAD DUP5 DUP2 GT PUSH2 0x92 JUMPI PUSH2 0xACB SWAP1 CALLDATASIZE SWAP1 PUSH1 0x4 ADD PUSH2 0x123F JUMP JUMPDEST SWAP5 PUSH2 0xB00 CALLER PUSH32 0x0 PUSH1 0x1 PUSH1 0x1 PUSH1 0xA0 SHL SUB AND EQ PUSH2 0x13DC JUMP JUMPDEST PUSH1 0x1 SWAP7 DUP8 SLOAD SWAP5 PUSH1 0x1 PUSH1 0x40 SHL DUP7 LT ISZERO PUSH2 0x67B JUMPI PUSH2 0xB22 DUP7 DUP11 PUSH1 0x2 SWAP9 ADD DUP12 SSTORE PUSH2 0x1295 JUMP JUMPDEST POP DUP1 SLOAD PUSH1 0x1 PUSH1 0x1 PUSH1 0xF0 SHL SUB NOT AND PUSH10 0xFFFFFFFFFFFFFFFFFFFF PUSH1 0xA0 SHL NOT CALLER AND OR PUSH1 0xA0 SWAP6 SWAP1 SWAP6 SHL PUSH2 0xFFFF PUSH1 0xA0 SHL AND SWAP5 SWAP1 SWAP5 OR PUSH1 0xB0 SWAP6 SWAP1 SWAP6 SHL PUSH2 0xFFFF PUSH1 0xB0 SHL AND SWAP5 SWAP1 SWAP5 OR PUSH1 0xC0 SWAP5 SWAP1 SWAP5 SHL PUSH2 0xFFFF PUSH1 0xC0 SHL AND SWAP4 SWAP1 SWAP4 OR PUSH1 0xD0 SWAP4 SWAP1 SWAP4 SHL PUSH2 0xFFFF PUSH1 0xD0 SHL AND SWAP3 SWAP1 SWAP3 OR PUSH1 0xE0 SWAP3 SWAP1 SWAP3 SHL PUSH2 0xFFFF PUSH1 0xE0 SHL AND SWAP2 SWAP1 SWAP2 OR DUP2 SSTORE PUSH1 0xA4 CALLDATALOAD DUP6 DUP3 ADD SSTORE DUP4 MLOAD SWAP2 ADD SWAP3 SWAP1 SWAP2 DUP3 GT PUSH2 0x67B JUMPI PUSH2 0xBB6 DUP4 SLOAD PUSH2 0x12E6 JUMP JUMPDEST PUSH1 0x1F DUP2 GT PUSH2 0xCC2 JUMPI JUMPDEST POP PUSH1 0x20 SWAP1 PUSH1 0x1F DUP4 GT PUSH1 0x1 EQ PUSH2 0xC60 JUMPI PUSH2 0xBF0 SWAP3 SWAP2 PUSH1 0x0 SWAP2 DUP4 PUSH2 0xC55 JUMPI POP POP DUP2 PUSH1 0x1 SHL SWAP2 PUSH1 0x0 NOT SWAP1 PUSH1 0x3 SHL SHR NOT AND OR SWAP1 JUMP JUMPDEST SWAP1 SSTORE JUMPDEST PUSH1 0x0 SLOAD PUSH1 0x0 NOT SWAP2 SWAP1 DUP3 DUP2 EQ PUSH2 0xC3F JUMPI DUP2 ADD PUSH1 0x0 SSTORE SLOAD SWAP1 DUP2 ADD SWAP1 DUP2 GT PUSH2 0xC3F JUMPI PUSH1 0x20 PUSH32 0xD1959B6F21A13D63764A45C846F4A58F7E55291FB17591FF1D1B3FD4C2953E45 SWAP2 PUSH1 0x40 MLOAD SWAP1 DUP2 MSTORE LOG1 STOP JUMPDEST PUSH4 0x4E487B71 PUSH1 0xE0 SHL PUSH1 0x0 MSTORE PUSH1 0x11 PUSH1 0x4 MSTORE PUSH1 0x24 PUSH1 0x0 REVERT JUMPDEST ADD MLOAD SWAP1 POP DUP6 DUP1 PUSH2 0x3D0 JUMP JUMPDEST DUP5 SWAP3 SWAP2 PUSH1 0x1F NOT DUP4 AND SWAP2 DUP6 PUSH1 0x0 MSTORE DUP2 PUSH1 0x0 KECCAK256 SWAP3 PUSH1 0x0 JUMPDEST DUP2 DUP2 LT PUSH2 0xCAA JUMPI POP DUP5 GT PUSH2 0xC91 JUMPI JUMPDEST POP POP POP DUP2 SHL ADD SWAP1 SSTORE PUSH2 0xBF3 JUMP JUMPDEST ADD MLOAD PUSH1 0x0 NOT PUSH1 0xF8 DUP5 PUSH1 0x3 SHL AND SHR NOT AND SWAP1 SSTORE DUP5 DUP1 DUP1 PUSH2 0xC84 JUMP JUMPDEST DUP3 DUP5 ADD MLOAD DUP6 SSTORE DUP9 SWAP7 SWAP1 SWAP5 ADD SWAP4 PUSH1 0x20 SWAP4 DUP5 ADD SWAP4 ADD PUSH2 0xC75 JUMP JUMPDEST PUSH2 0xCEE SWAP1 DUP5 PUSH1 0x0 MSTORE PUSH1 0x20 PUSH1 0x0 KECCAK256 PUSH1 0x1F DUP6 ADD PUSH1 0x5 SHR DUP2 ADD SWAP2 PUSH1 0x20 DUP7 LT PUSH2 0x671 JUMPI PUSH1 0x1F ADD PUSH1 0x5 SHR ADD SWAP1 PUSH2 0x1433 JUMP JUMPDEST DUP5 PUSH2 0xBBF JUMP JUMPDEST CALLVALUE PUSH2 0x92 JUMPI PUSH1 0x0 CALLDATASIZE PUSH1 0x3 NOT ADD SLT PUSH2 0x92 JUMPI PUSH2 0xD39 CALLER PUSH32 0x0 PUSH1 0x1 PUSH1 0x1 PUSH1 0xA0 SHL SUB AND EQ PUSH2 0x13DC JUMP JUMPDEST PUSH1 0x20 PUSH1 0x1 SLOAD PUSH1 0x40 MLOAD SWAP1 DUP2 MSTORE RETURN JUMPDEST CALLVALUE PUSH2 0x92 JUMPI PUSH1 0x20 CALLDATASIZE PUSH1 0x3 NOT ADD SLT PUSH2 0x92 JUMPI PUSH1 0x4 CALLDATALOAD PUSH1 0x1 SLOAD DUP2 LT ISZERO PUSH2 0x92 JUMPI PUSH2 0xD6D SWAP1 PUSH2 0x1295 JUMP JUMPDEST POP DUP1 SLOAD SWAP1 PUSH2 0xDC0 PUSH2 0xFFFF SWAP2 PUSH2 0xD89 PUSH1 0x2 PUSH1 0x1 DUP4 ADD SLOAD SWAP3 ADD PUSH2 0x1320 JUMP JUMPDEST SWAP1 PUSH1 0x40 MLOAD SWAP5 DUP5 DUP7 SWAP6 DUP3 PUSH1 0xE0 SHR AND SWAP2 DUP2 DUP2 PUSH1 0xD0 SHR AND SWAP2 DUP1 DUP3 PUSH1 0xC0 SHR AND SWAP2 DUP2 DUP2 PUSH1 0xB0 SHR AND SWAP2 DUP2 PUSH1 0xA0 SHR AND SWAP1 PUSH1 0x1 DUP1 PUSH1 0xA0 SHL SUB AND DUP10 PUSH2 0x1170 JUMP JUMPDEST SUB SWAP1 RETURN JUMPDEST CALLVALUE PUSH2 0x92 JUMPI PUSH1 0x40 CALLDATASIZE PUSH1 0x3 NOT ADD SLT PUSH2 0x92 JUMPI PUSH2 0xDDD PUSH2 0x11C9 JUMP JUMPDEST PUSH1 0x24 CALLDATALOAD PUSH1 0x1 PUSH1 0x1 PUSH1 0x40 SHL SUB DUP2 GT PUSH2 0x92 JUMPI PUSH2 0xDFC SWAP1 CALLDATASIZE SWAP1 PUSH1 0x4 ADD PUSH2 0x123F JUMP JUMPDEST PUSH2 0xE30 CALLER PUSH32 0x0 PUSH1 0x1 PUSH1 0x1 PUSH1 0xA0 SHL SUB AND EQ PUSH2 0x13DC JUMP JUMPDEST PUSH1 0x40 MLOAD SWAP2 DUP2 MLOAD PUSH1 0x20 SWAP4 DUP5 DUP2 DUP2 DUP7 ADD SWAP4 PUSH2 0xE4A DUP2 DUP4 DUP8 PUSH2 0x1128 JUMP JUMPDEST DUP2 ADD PUSH1 0x2 DUP2 MSTORE SUB ADD SWAP1 KECCAK256 SLOAD SWAP3 PUSH2 0xFFFF SWAP4 DUP5 DUP5 AND LT ISZERO PUSH2 0xFFC JUMPI DUP5 PUSH2 0xE8D SWAP4 SWAP3 PUSH2 0xE7E SWAP3 PUSH1 0x40 MLOAD SWAP4 DUP5 SWAP3 DUP4 SWAP3 MLOAD SWAP3 DUP4 SWAP2 PUSH2 0x1128 JUMP JUMPDEST DUP2 ADD PUSH1 0x2 DUP2 MSTORE SUB ADD SWAP1 KECCAK256 PUSH2 0x1417 JUMP JUMPDEST POP DUP1 SLOAD SWAP1 PUSH1 0x1 PUSH1 0x4 DUP3 ADD SWAP5 PUSH2 0xEA4 PUSH1 0x1 DUP5 ADD PUSH2 0x1320 JUMP JUMPDEST PUSH2 0xEB0 PUSH1 0x2 DUP6 ADD PUSH2 0x1320 JUMP JUMPDEST PUSH2 0xEBC PUSH1 0x3 DUP7 ADD PUSH2 0x1320 JUMP JUMPDEST SWAP2 DUP9 SLOAD SWAP6 PUSH2 0xEC9 DUP8 PUSH2 0x13C5 JUMP JUMPDEST SWAP7 PUSH2 0xED7 PUSH1 0x40 MLOAD SWAP9 DUP10 PUSH2 0x121E JUMP JUMPDEST DUP1 DUP9 MSTORE DUP6 DUP9 ADD DUP1 SWAP12 PUSH1 0x0 MSTORE DUP7 PUSH1 0x0 KECCAK256 PUSH1 0x0 SWAP2 JUMPDEST DUP4 DUP4 LT PUSH2 0xFDC JUMPI POP POP POP POP SWAP2 PUSH2 0xF55 PUSH2 0xF63 SWAP3 PUSH2 0xF0D PUSH1 0x5 PUSH2 0xF71 SWAP8 SWAP7 ADD PUSH2 0x1320 JUMP JUMPDEST SWAP10 PUSH1 0x40 MLOAD SWAP12 PUSH2 0x140 SWAP2 DUP14 DUP3 DUP3 AND SWAP1 MSTORE DUP14 DUP11 DUP4 DUP4 PUSH1 0x10 SHR AND SWAP2 ADD MSTORE DUP14 PUSH1 0x40 DUP4 DUP4 DUP14 SHR AND SWAP2 ADD MSTORE DUP14 PUSH1 0x60 DUP4 DUP4 PUSH1 0x30 SHR AND SWAP2 ADD MSTORE PUSH1 0x40 SHR AND PUSH1 0x80 DUP14 ADD MSTORE DUP1 PUSH1 0xA0 DUP14 ADD MSTORE DUP12 ADD SWAP1 PUSH2 0x114B JUMP JUMPDEST SWAP1 DUP10 DUP3 SUB PUSH1 0xC0 DUP12 ADD MSTORE PUSH2 0x114B JUMP JUMPDEST SWAP1 DUP8 DUP3 SUB PUSH1 0xE0 DUP10 ADD MSTORE PUSH2 0x114B JUMP JUMPDEST SWAP3 DUP6 DUP5 SUB PUSH2 0x100 DUP8 ADD MSTORE MLOAD SWAP1 DUP2 DUP5 MSTORE DUP1 DUP5 ADD SWAP4 DUP2 DUP4 PUSH1 0x5 SHL DUP3 ADD ADD SWAP8 SWAP5 PUSH1 0x0 SWAP2 JUMPDEST DUP5 DUP4 LT PUSH2 0xFAE JUMPI DUP9 DUP1 PUSH2 0xDC0 DUP13 DUP12 DUP4 DUP3 SUB PUSH2 0x120 DUP6 ADD MSTORE PUSH2 0x114B JUMP JUMPDEST SWAP1 SWAP2 SWAP3 SWAP4 SWAP5 DUP5 DUP1 PUSH2 0xFCB DUP4 SWAP10 SWAP13 PUSH1 0x1F NOT DUP7 DUP3 SUB ADD DUP8 MSTORE DUP14 MLOAD PUSH2 0x114B JUMP JUMPDEST SWAP12 ADD SWAP4 ADD SWAP4 ADD SWAP2 SWAP6 SWAP5 SWAP4 SWAP3 SWAP1 PUSH2 0xF92 JUMP JUMPDEST SWAP9 DUP1 DUP10 DUP2 SWAP13 SWAP12 PUSH2 0xFEB DUP6 PUSH2 0x1320 JUMP JUMPDEST DUP2 MSTORE ADD SWAP3 ADD SWAP3 ADD SWAP2 SWAP1 SWAP10 SWAP9 SWAP10 PUSH2 0xEEA JUMP JUMPDEST PUSH1 0x40 MLOAD PUSH3 0x461BCD PUSH1 0xE5 SHL DUP2 MSTORE PUSH1 0x4 DUP2 ADD DUP7 SWAP1 MSTORE PUSH1 0x17 PUSH1 0x24 DUP3 ADD MSTORE PUSH32 0x53657373696F6E20646F6573206E6F742065786973742E000000000000000000 PUSH1 0x44 DUP3 ADD MSTORE PUSH1 0x64 SWAP1 REVERT JUMPDEST CALLVALUE PUSH2 0x92 JUMPI PUSH1 0x20 CALLDATASIZE PUSH1 0x3 NOT ADD SLT PUSH2 0x92 JUMPI PUSH1 0x1 PUSH1 0x1 PUSH1 0xA0 SHL SUB PUSH1 0x4 CALLDATALOAD PUSH2 0x108A CALLER PUSH32 0x0 DUP5 AND EQ PUSH2 0x13DC JUMP JUMPDEST PUSH1 0x1 SLOAD DUP2 LT ISZERO PUSH2 0x10EA JUMPI PUSH2 0x109D SWAP1 PUSH2 0x1295 JUMP JUMPDEST POP SWAP1 PUSH2 0xDC0 DUP3 SLOAD SWAP3 PUSH2 0xFFFF SWAP1 PUSH2 0x10BA PUSH1 0x2 PUSH1 0x1 DUP4 ADD SLOAD SWAP3 ADD PUSH2 0x1320 JUMP JUMPDEST SWAP2 PUSH1 0x40 MLOAD SWAP6 DUP7 SWAP6 DUP3 DUP3 PUSH1 0xE0 SHR AND SWAP3 DUP1 DUP4 PUSH1 0xD0 SHR AND SWAP3 DUP2 DUP2 PUSH1 0xC0 SHR AND SWAP3 DUP3 DUP3 PUSH1 0xB0 SHR AND SWAP3 DUP3 PUSH1 0xA0 SHR AND SWAP2 AND DUP10 PUSH2 0x1170 JUMP JUMPDEST PUSH1 0x40 MLOAD PUSH3 0x461BCD PUSH1 0xE5 SHL DUP2 MSTORE PUSH1 0x20 PUSH1 0x4 DUP3 ADD MSTORE PUSH1 0x16 PUSH1 0x24 DUP3 ADD MSTORE PUSH22 0x2932B1B7B932103237B2B9903737BA1032BC34B9BA17 PUSH1 0x51 SHL PUSH1 0x44 DUP3 ADD MSTORE PUSH1 0x64 SWAP1 REVERT JUMPDEST PUSH1 0x0 JUMPDEST DUP4 DUP2 LT PUSH2 0x113B JUMPI POP POP PUSH1 0x0 SWAP2 ADD MSTORE JUMP JUMPDEST DUP2 DUP2 ADD MLOAD DUP4 DUP3 ADD MSTORE PUSH1 0x20 ADD PUSH2 0x112B JUMP JUMPDEST SWAP1 PUSH1 0x20 SWAP2 PUSH2 0x1164 DUP2 MLOAD DUP1 SWAP3 DUP2 DUP6 MSTORE DUP6 DUP1 DUP7 ADD SWAP2 ADD PUSH2 0x1128 JUMP JUMPDEST PUSH1 0x1F ADD PUSH1 0x1F NOT AND ADD ADD SWAP1 JUMP JUMPDEST PUSH1 0x1 PUSH1 0x1 PUSH1 0xA0 SHL SUB SWAP1 SWAP2 AND DUP2 MSTORE PUSH2 0xFFFF SWAP2 DUP3 AND PUSH1 0x20 DUP3 ADD MSTORE SWAP2 DUP2 AND PUSH1 0x40 DUP4 ADD MSTORE SWAP2 DUP3 AND PUSH1 0x60 DUP3 ADD MSTORE SWAP2 DUP2 AND PUSH1 0x80 DUP4 ADD MSTORE SWAP1 SWAP2 AND PUSH1 0xA0 DUP3 ADD MSTORE PUSH1 0xC0 DUP2 ADD SWAP2 SWAP1 SWAP2 MSTORE PUSH2 0x100 PUSH1 0xE0 DUP3 ADD DUP2 SWAP1 MSTORE PUSH2 0x11C6 SWAP3 SWAP2 ADD SWAP1 PUSH2 0x114B JUMP JUMPDEST SWAP1 JUMP JUMPDEST PUSH1 0x4 CALLDATALOAD SWAP1 PUSH2 0xFFFF DUP3 AND DUP3 SUB PUSH2 0x92 JUMPI JUMP JUMPDEST PUSH1 0x24 CALLDATALOAD SWAP1 PUSH2 0xFFFF DUP3 AND DUP3 SUB PUSH2 0x92 JUMPI JUMP JUMPDEST PUSH1 0x44 CALLDATALOAD SWAP1 PUSH2 0xFFFF DUP3 AND DUP3 SUB PUSH2 0x92 JUMPI JUMP JUMPDEST PUSH1 0x64 CALLDATALOAD SWAP1 PUSH2 0xFFFF DUP3 AND DUP3 SUB PUSH2 0x92 JUMPI JUMP JUMPDEST PUSH1 0x84 CALLDATALOAD SWAP1 PUSH2 0xFFFF DUP3 AND DUP3 SUB PUSH2 0x92 JUMPI JUMP JUMPDEST SWAP1 PUSH1 0x1F DUP1 NOT SWAP2 ADD AND DUP2 ADD SWAP1 DUP2 LT PUSH1 0x1 PUSH1 0x1 PUSH1 0x40 SHL SUB DUP3 GT OR PUSH2 0x67B JUMPI PUSH1 0x40 MSTORE JUMP JUMPDEST DUP2 PUSH1 0x1F DUP3 ADD SLT ISZERO PUSH2 0x92 JUMPI DUP1 CALLDATALOAD SWAP1 PUSH1 0x1 PUSH1 0x1 PUSH1 0x40 SHL SUB DUP3 GT PUSH2 0x67B JUMPI PUSH1 0x40 MLOAD SWAP3 PUSH2 0x1273 PUSH1 0x1F DUP5 ADD PUSH1 0x1F NOT AND PUSH1 0x20 ADD DUP6 PUSH2 0x121E JUMP JUMPDEST DUP3 DUP5 MSTORE PUSH1 0x20 DUP4 DUP4 ADD ADD GT PUSH2 0x92 JUMPI DUP2 PUSH1 0x0 SWAP3 PUSH1 0x20 DUP1 SWAP4 ADD DUP4 DUP7 ADD CALLDATACOPY DUP4 ADD ADD MSTORE SWAP1 JUMP JUMPDEST PUSH1 0x1 SLOAD DUP2 LT ISZERO PUSH2 0x12D0 JUMPI PUSH1 0x3 SWAP1 PUSH1 0x1 PUSH1 0x0 MSTORE MUL PUSH32 0xB10E2D527612073B26EECDFD717E6A320CF44B4AFAC2B0732D9FCBE2B7FA0CF6 ADD SWAP1 PUSH1 0x0 SWAP1 JUMP JUMPDEST PUSH4 0x4E487B71 PUSH1 0xE0 SHL PUSH1 0x0 MSTORE PUSH1 0x32 PUSH1 0x4 MSTORE PUSH1 0x24 PUSH1 0x0 REVERT JUMPDEST SWAP1 PUSH1 0x1 DUP3 DUP2 SHR SWAP3 AND DUP1 ISZERO PUSH2 0x1316 JUMPI JUMPDEST PUSH1 0x20 DUP4 LT EQ PUSH2 0x1300 JUMPI JUMP JUMPDEST PUSH4 0x4E487B71 PUSH1 0xE0 SHL PUSH1 0x0 MSTORE PUSH1 0x22 PUSH1 0x4 MSTORE PUSH1 0x24 PUSH1 0x0 REVERT JUMPDEST SWAP2 PUSH1 0x7F AND SWAP2 PUSH2 0x12F5 JUMP JUMPDEST SWAP1 PUSH1 0x40 MLOAD SWAP2 DUP3 PUSH1 0x0 DUP3 SLOAD PUSH2 0x1333 DUP2 PUSH2 0x12E6 JUMP JUMPDEST SWAP1 DUP2 DUP5 MSTORE PUSH1 0x20 SWAP5 PUSH1 0x1 SWAP2 PUSH1 0x1 DUP2 AND SWAP1 DUP2 PUSH1 0x0 EQ PUSH2 0x13A3 JUMPI POP PUSH1 0x1 EQ PUSH2 0x1364 JUMPI JUMPDEST POP POP POP PUSH2 0x1362 SWAP3 POP SUB DUP4 PUSH2 0x121E JUMP JUMPDEST JUMP JUMPDEST PUSH1 0x0 SWAP1 DUP2 MSTORE DUP6 DUP2 KECCAK256 SWAP6 SWAP4 POP SWAP2 SWAP1 JUMPDEST DUP2 DUP4 LT PUSH2 0x138B JUMPI POP POP PUSH2 0x1362 SWAP4 POP DUP3 ADD ADD CODESIZE DUP1 DUP1 PUSH2 0x1353 JUMP JUMPDEST DUP6 SLOAD DUP9 DUP5 ADD DUP6 ADD MSTORE SWAP5 DUP6 ADD SWAP5 DUP8 SWAP5 POP SWAP2 DUP4 ADD SWAP2 PUSH2 0x1372 JUMP JUMPDEST SWAP3 POP POP POP PUSH2 0x1362 SWAP5 SWAP3 POP PUSH1 0xFF NOT AND DUP3 DUP5 ADD MSTORE ISZERO ISZERO PUSH1 0x5 SHL DUP3 ADD ADD CODESIZE DUP1 DUP1 PUSH2 0x1353 JUMP JUMPDEST PUSH1 0x1 PUSH1 0x1 PUSH1 0x40 SHL SUB DUP2 GT PUSH2 0x67B JUMPI PUSH1 0x5 SHL PUSH1 0x20 ADD SWAP1 JUMP JUMPDEST ISZERO PUSH2 0x13E3 JUMPI JUMP JUMPDEST PUSH1 0x40 MLOAD PUSH3 0x461BCD PUSH1 0xE5 SHL DUP2 MSTORE PUSH1 0x20 PUSH1 0x4 DUP3 ADD MSTORE PUSH1 0xC PUSH1 0x24 DUP3 ADD MSTORE PUSH12 0x155B985D5D1A1BDC9A5E9959 PUSH1 0xA2 SHL PUSH1 0x44 DUP3 ADD MSTORE PUSH1 0x64 SWAP1 REVERT JUMPDEST DUP1 SLOAD DUP3 LT ISZERO PUSH2 0x12D0 JUMPI PUSH1 0x0 MSTORE PUSH1 0x6 PUSH1 0x20 PUSH1 0x0 KECCAK256 SWAP2 MUL ADD SWAP1 PUSH1 0x0 SWAP1 JUMP JUMPDEST DUP2 DUP2 LT PUSH2 0x143E JUMPI POP POP JUMP JUMPDEST PUSH1 0x0 DUP2 SSTORE PUSH1 0x1 ADD PUSH2 0x1433 JUMP INVALID LOG2 PUSH5 0x6970667358 0x22 SLT KECCAK256 SWAP12 PUSH28 0x1EF3F87C3ECAECCB22EA967560EE17F982E783EDCD8A72DAD3D61B59 PUSH11 0xA264736F6C634300081800 CALLER "},"methodIdentifiers":{"addRecord(uint16,uint16,uint16,uint16,uint16,uint256,string)":"5e57270b","addSession(uint16,uint16,uint16,uint16,uint16,string,string,string,string,string[],string)":"7ba4f2fa","getRecord(uint256)":"03e9e609","getRecordsCount()":"505158bb","getSession(uint16,string)":"32143d8a","owner()":"8da5cb5b","records(uint256)":"34461067","recordsCount()":"eb3dbf83"}}}}}